:030000000210D11A
:0C10D100787FE4F6D8FD7581200211182C
:031760000D0A006F
:0613DA0084084000000041
:10103600AB07AA067C277D10120447EF24307811EF
:10104600F27C277D10AF03AE02120447AA04AB055B
:101056007C037DE8AF03AE02120447EF2430780C20
:10106600F27C037DE8AF03AE02120447AA04AB0587
:101076007C007D64AF03AE02120447EF2430780D86
:10108600F27C007D64AF03AE02120447AA04AB05EE
:101096007C007D0AAF03AE02120447EF24307810BD
:1010A600F27C007D0AAF03AE02120447AB05EB24C7
:1010B60030FF7812F2780CE2781BF2780DE2781C99
:0B10C600F27810E2781DF208EFF22231
:10000300E4FDFCC3ED9FEC9E5015E4FBFA0BBB0033
:0F001300010AEB64794A70F50DBD00010C80E421
:0100220022BB
:0D173B00000000000000000000000000227F
:0E1700007F307E02EF1FAC0670011E4C70F6AB
:01170E0022B8
:0F170F00D287D28612173BC28712173BC286229F
:0C174800C287D28612173BD28702173BE3
:0E172D00A2059287D28612173BC28602173B96
:0C175400D28612173BA287C28602173B08
:0515A90012170F7FA6E0
:1015AE00E4FEEEC39408748094805013EF25E0FFA0
:1015BE009287D28612173BC28612173B0E80E30229
:0215CE001754B0
:1015D000E4FFD287FEEEC39408748094805017EF26
:1015E00025E0FFD28612173BA287E4334FFFC28665
:0615F00012173B0E80DF24
:0115F60022D2
:1016CA00AC071215A9AF041215AEAF051215AE027A
:0216DA001748AF
:02002600AD0724
:100028001215A9AF051215AE12170F7FA71215AE3C
:0B0038001215D0D20512172D02174838
:1014AA001215A97F321215AE12170F7FA71215AEA9
:1014BA00E4FDEDC3940674809480501A1215D0741A
:1014CA00132DF8EFF2ED64057004D2058002C2050F
:0C14DA0012172D0D80DC121748021700BD
:10157C007D0B7F311216CA7D087F2C1216CA7F2D67
:10158C001216CA7D807F2E1216CAE4FD7F1E12161B
:0D159C00CA7F1F1216CA7D057F200216CAE5
:10115D007814E2FE18E27C002400FFEC3EFE780ECF
:10116D00F208EFF2C3EE64809480501118E2FE088D
:10117D00E2FFC3E49FFFE49E18F208EFF2780EE25F
:10118D00FC08E2FDEC1203627B9A7A99797978403A
:10119D0012013E78001205C7E4FFFE7DC87C43783E
:1011AD0000E2FB08E2F908E2FA08E2CBF81202E4E9
:1011BD0060064004C2A08002D2A07800E2FC08E2E2
:0D11CD00FD08E2FE08E2FF12039B0210364F
:1011DA007816E2FE18E27C002400FFEC3EFE780E50
:1011EA00F208EFF2C3EE64809480501118E2FE0810
:1011FA00E2FFC3E49FFFE49E18F208EFF2780EE2E2
:10120A00FC08E2FDEC1203627B9A7A9979797840BC
:10121A0012013E78041205C7E4FFFE7DC87C4378BC
:10122A0004E2FB08E2F908E2FA08E2CBF81202E467
:10123A0060064004C2A08002D2A07804E2FC08E260
:0D124A00FD08E2FE08E2FF12039B021036D1
:1012C3007818E2FE18E27C002400FFEC3EFE780E64
:1012D300F208EFF2C3EE64809480501118E2FE0826
:1012E300E2FFC3E49FFFE49E18F208EFF2780EE2F8
:1012F300FC08E2FDEC1203627B9A7A9979797840D3
:1013030012013E12039B121036780CE2B43106121E
:10131300125712146A7BFE7A00791B12151A7BFF8F
:071323007A17796002151A28
:10161D007FF47E0112000312157CE4FF120026EF09
:10162D0064E56004E4F5A0221214AA12115D1211F2
:04163D00DA1212C3E8
:011641002286
:10154E000D0A00B1B1CEB33A00C4CFCEB33A00B655
:10155E00ABBEAD3A00CEF7BEAD3A00C9E8B1B8CFDA
:0E156E00D6D4DACBF9B4A6B5C4CEBBD6C30032
:1013E000812D00C100C101C102C1038125008128F6
:1013F00000812100812C00811F00812A008177005B
:10140000812200812700817800812600812B0081C4
:10141000200081790081290082230000C104812EEF
:0114200000CB
:100DB100E4787DF2200403020E397833E26447704F
:100DC100777835E2642C7070783CE2642E70697833
:100DD1007DF2787DE2C3944474809480501AE2FFDE
:100DE100242FF8E2FE74982FF582E43400F583EEA7
:100DF100F0787DE204F280DA90009FE075F00AA4B9
:100E0100FFA3E02F24F87828F2C39418748094800B
:100E1100400CE275F01884E5F0F2D2018002C201C3
:100E21009000A1E07821F2A3E0782CF2A3E0781FF2
:100E3100F2A3E0782AF2D202200203020ED9C20202
:100E41007BFF7A15794E12151A7877E2FF782CE23A
:100E5100C39FFFE49400FEC3EF9401EE648094808D
:100E610040691212577BFF7A15796912151A7BFFB7
:100E71007A15794E12151A9000B4E07BFFB44E0634
:100E81007A15795180047A15795712151A1205D3FA
:100E91007BFF7A15794E12151A9000C2E07BFFB4E0
:100EA10045067A15795D80047A15796312151A124F
:100EB10009C97BFF7A15794E12151A7F1A1216B6D7
:100EC1007BFF7A15794E12151AD2AC782CE2FF7895
:100ED10077F2EF64097001F230046A7833E2644D0D
:100EE10070637863E2642C705C786AE2642C7055FC
:100EF100787DF2787DE2C3944474809480501AE244
:100F0100FF242FF8E2FE74DC2FF582E43400F58330
:100F1100EEF0787DE204F280DA900115E07879F262
:100F2100A3E07829F2900113E07878F2A3E0782623
:100F3100F2900111E07820F2A3E0782BF230010366
:0A0F4100120F4CD203300302C2036A
:010F4B002283
:100F4C007820E275F00AA4FF782BE22F24F17827A1
:100F5C00F27878E224D075F00AA4FF7826E224D047
:100F6C002F7822F2FB7879E224D0FFE434FFFE7C68
:100F7C00007D0A120435EF24D0FFEE3407FE7829E9
:100F8C00E224D0FDEC34FFCD2FFFED3EFE7823F2B2
:100F9C00FC08EFF2FDAF0312132A782EEFF278273C
:100FAC00E2D39F401D7401F27822E204F2E2D39462
:100FBC000C74809480400B7824E22401F218E23403
:100FCC0000F27827E2FF75F00A8424307820F2EFE3
:100FDC0075F00A84E5F02430782BF27822E2FF7564
:100FEC00F00A8424307878F2EF75F00A84E5F02466
:100FFC00307826F27823E2FA08E2FB7C007D64FF6D
:10100C00AE021204477E007F0ACFCDCFCECCCE12DB
:10101C000447EF24307879F27C007D0AAF03AE02EE
:0A102C00120447ED24307829F22267
:10132A00EF14B40C00505390133F75F003A4C58317
:10133A0025F0C5837302136302136A02136302134F
:10134A007F02136302137F02136302136302137F84
:10135A0002136302137F021363787E741FF2801AEA
:10136A00AE04AF051215F750047F1D80027F1C786A
:0E137A007EEFF28005787E741EF2787EE2FF30
:011388002242
:1015F700AB07AA06EB5403700AFC7D64120447ED9F
:101607004C700FAE02AF037C017D90120447ED4C86
:061617007002D322C32281
:10164200E4FDFCC3ED9FEC9E5015E4FBFA0BBB00DE
:0F165200010AEB647B4A70F50DBD00010C80E4CA
:011661002266
:1005D3009000A9E024D0FFE434FFFE7C007D0A12E2
:1005E3000435A3E024D0FDEC34FFCD2FFFED3EFE18
:1005F3003395E0FDFC78821205C79000ABE024D070
:10060300FFE434FFFE7C007D0A120435A3E024D00E
:10061300FDEC34FFCD2FCD3EFC120362E4FBFA79EF
:100623007078421202477B007A5079C378471201EF
:100633003E12039B78861205C79000AFE024D0FDDD
:10064300E434FFFC1203627B0A7AD77923783C12E5
:10065300013EC004C005C006C0079000AEE024D030
:10066300FDE434FFFC1203627BCD7ACC79CC783D78
:1006730012013ED003D002D001D00012004DC004BD
:10068300C005C006C0079000B0E024D0FDE434FFED
:10069300FC1203627B6F7A127983783A12013ED09F
:1006A30003D002D001D00012004DC004C005C00623
:1006B300C0079000B1E024D0FDE434FFFC120362D4
:1006C3007B177AB779D1783812013ED003D002D0A4
:1006D30001D00012004DC004C005C006C007900041
:1006E300B2E024D0FDE434FFFC1203627BAC7AC594
:1006F3007927783712013ED003D002D001D00012FF
:10070300004DE4FBFA797078421202477B807A96B7
:100713007918784B12013E12039B788A1205C7E4BD
:100723007FE87E03FDFC7886E2FB08E2F908E2FA43
:1007330008E2CBF812049CC004C005C006C0077FC2
:10074300007EE17DF57C057882E2FB08E2F908E2B0
:10075300FA08E2CBF812049CD003D002D001D000F7
:10076300EF2BFFEE3AFEED39FDEC38FCC004C0057B
:10077300C006C007E47F0AFEFDFC788AE2FB08E2BC
:10078300F908E2FA08E2CBF812049CD003D002D0B5
:1007930001D000EF2BFFEE3AFEED39FDEC38FC788B
:1007A3007E1205C77B007ACA799A783BC000787EAF
:1007B300E2FC08E2FD08E2FE08E2FFD00012052792
:1007C300EF2430788EF27B007ACA799A783BC000A6
:1007D300787EE2FC08E2FD08E2FE08E2FFD00012A8
:1007E3000527AC00AD01AE02AF037B007AE179F5DA
:1007F3007805120527EF2430788FF27B007AE179B0
:10080300F57805C000787EE2FC08E2FD08E2FE0808
:10081300E2FFD000120527AC00AD01AE02AF037BAF
:10082300807A9679987800120527EF24307890F231
:100833007B807A9679987800C000787EE2FC08E2A3
:10084300FD08E2FE08E2FFD000120527AC00AD016F
:10085300AE02AF037B407A42790F7800120527EF8F
:1008630024307891F27B407A42790F7800C0007887
:100873007EE2FC08E2FD08E2FE08E2FFD00012057A
:1008830027AC00AD01AE02AF037BA07A8679017875
:1008930000120527EF24307892F27BA07A86790143
:1008A3007800C000787EE2FC08E2FD08E2FE08E280
:1008B300FFD000120527AC00AD01AE02AF03E47B0D
:1008C300107A27F9F8120527EF24307893F2E47BA6
:1008D300107A27F9F8C000787EE2FC08E2FD08E20E
:1008E300FE08E2FFD000120527AC00AD01AE02AF57
:1008F30003E47BE87A03F9F8120527EF24307894B0
:10090300F2E47BE87A03F9F8C000787EE2FC08E2BF
:10091300FD08E2FE08E2FFD000120527AC00AD019E
:10092300AE02AF03E47B64FAF9F8120527EF243033
:100933007895F2E47B64FAF9F8C000787EE2FC086B
:10094300E2FD08E2FE08E2FFD000120527AC00AD8D
:1009530001AE02AF03E47B0AFAF9F8120527EF248C
:10096300307896F2E47B0AFAF9F8C000787EE2FC6C
:1009730008E2FD08E2FE08E2FFD00012052778979F
:10098300EBF2788EE2FF1216B6788FE2FF1216B6FC
:100993007F2E1216B67890E2FF1216B67891E2FF18
:1009A3001216B67892E2FF1216B67893E2FF121689
:1009B300B67894E2FF1216B67895E2FF1216B6786F
:0609C30096E2FF0216B6E9
:1009C9009000B7E024D0FFE434FFFE7C007D0A12DA
:1009D9000435AA06AB079000B6E024D0FFE434FF43
:1009E900FE7D64120435EF2BFFEE3AFE9000B8E06D
:1009F90024D0FDEC34FFCD2FFFED3EFE3395E0FD15
:100A0900FC78821205C79000B9E024D0FFE434FFD6
:100A1900FE7C007D0A120435A3E024D0FDEC34FFEE
:100A2900CD2FCD3EFC120362E4FBFA7970784212B5
:100A390002477B807A967918784B12013E12039B04
:100A490078861205C79000BDE024D0FDE434FFFC90
:100A59001203627B0A7AD77923783C12013EC004DB
:100A6900C005C006C0079000BCE024D0FDE434FFF7
:100A7900FC1203627BCD7ACC79CC783D12013ED051
:100A890003D002D001D00012004DC004C005C00639
:100A9900C0079000BEE024D0FDE434FFFC120362DD
:100AA9007B6F7A127983783A12013ED003D002D053
:100AB90001D00012004DC004C005C006C007900057
:100AC900BFE024D0FDE434FFFC1203627B177AB740
:100AD90079D1783812013ED003D002D001D000126A
:100AE900004DC004C005C006C0079000C0E024D076
:100AF900FDE434FFFC1203627BAC7AC579277837B1
:100B090012013ED003D002D001D00012004DE4FB07
:100B1900FA797078421202477B807A967918784B75
:100B290012013E12039B788A1205C77F807E967D4B
:100B3900987C007882E2FB08E2F908E2FA08E2CB45
:100B4900F812049C7886E2FB08E2F908E2FA08E266
:100B5900CBF8EB2FFFEA3EFEE93DFDE83CFC788A45
:100B6900E2FB08E2F908E2FA08E2CBF8EB2FFFEA28
:100B79003EFEE93DFDE83CFC787E1205C77B007A24
:100B8900CA799A783BC000787EE2FC08E2FD08E267
:100B9900FE08E2FFD000120527EF2430788EF27BA1
:100BA900007ACA799A783BC000787EE2FC08E2FDB7
:100BB90008E2FE08E2FFD000120527AC00AD01AE45
:100BC90002AF037B007AE179F57805120527EF2456
:100BD90030788FF27B007AE179F57805C000787E6C
:100BE900E2FC08E2FD08E2FE08E2FFD00012052758
:100BF900AC00AD01AE02AF037B807A96799878009C
:100C0900120527EF24307890F27B807A96799878CC
:100C190000C000787EE2FC08E2FD08E2FE08E2FF7F
:100C2900D000120527AC00AD01AE02AF037B407ABC
:100C390042790F7800120527EF24307891F27B4032
:100C49007A42790F7800C000787EE2FC08E2FD085C
:100C5900E2FE08E2FFD000120527AC00AD01AE02AA
:100C6900AF037BA07A8679017800120527EF24303B
:100C79007892F27BA07A8679017800C000787EE2CA
:100C8900FC08E2FD08E2FE08E2FFD000120527ACED
:100C990000AD01AE02AF03E47B107A27F9F8120523
:100CA90027EF24307893F2E47B107A27F9F8C00013
:100CB900787EE2FC08E2FD08E2FE08E2FFD00012BD
:100CC9000527AC00AD01AE02AF03E47BE87A03F976
:100CD900F8120527EF24307894F2E47BE87A03F9D7
:100CE900F8C000787EE2FC08E2FD08E2FE08E2FFB7
:100CF900D000120527AC00AD01AE02AF03E47B645E
:100D0900FAF9F8120527EF24307895F2E47B64FAB2
:100D1900F9F8C000787EE2FC08E2FD08E2FE08E28C
:100D2900FFD000120527AC00AD01AE02AF03E47B92
:100D39000AFAF9F8120527EF24307896F2E47B0ACB
:100D4900FAF9F8C000787EE2FC08E2FD08E2FE0844
:100D5900E2FFD000120527EB24307897F2788EE273
:100D6900FF1216B6788FE2FF1216B67890E2FF12DC
:100D790016B67F2E1216B67891E2FF1216B6789241
:100D8900E2FF1216B67893E2FF1216B67894E2FFE4
:100D99001216B67895E2FF1216B67896E2FF121689
:080DA900B67897E2FF0216B6CE
:101422000D0A0041542B435343533D00554353325D
:101432000041542B43534D503D31372C3136372C1C
:10144200302C380041542B434D47533D0031373146
:1014520030343934353735300041542B434D47460B
:081462003D3100CEA3CFD500FF
:041682007F707E17E0
:10168600EF1FAA0670011E4A600FE4FDEDC39478B1
:091696007480948050EA0D80F389
:01169F002228
:101257007BFF7A14792512151A7BFF7A14792E12DF
:10126700151A7BFF7A14792212151A1216827BFF40
:101277007A14793312151A7BFF7A14792212151A08
:101287001216827BFF7A14795B12151A7BFF7A1488
:10129700792212151AC2AC1216827BFF7A1479468C
:1012A70012151A7BFF7A14794F12151A7BFF7A14DD
:0C12B700792212151A7F707E170216862D
:10146A007BFF7A14794612151A7BFF7A14794F1288
:10147A00151A7BFF7A14792212151A7FB87E0B127D
:10148A0016867BFF7A14796512151A7F1A1216B618
:10149A00D2AC7FE87E031216867F887E13021686F8
:0F171E00759ADA759CFD758E1475AF01D2AF22E6
:1016A000759850E4F587758920758BFD758DFDD291
:0616B0008ED2ACD2AF2285
:1016DC002006FDEF30D004D29B8002C29BD206F5CF
:0216EC00992241
:1014E600787AEBF208EAF208E9F2787AE2FB08E2A7
:1014F600FA08E2F912041C601A787AE2FB0808E29C
:10150600F92401F218E2FA3400F212041CFF121652
:04151600DC80D7227C
:1016B6002006FDEF30D005439A088003539AF7D2EF
:0416C60006F59B2268
:10151A00787EEBF208EAF208E9F2787EE2FB08E26A
:10152A00FA08E2F912041C601A787EE2FB0808E263
:10153A00F92401F218E2FA3400F212041CFF12161E
:04154A00B680D7226E
:030023000213893C
:07138900C0E0C0D075D018D0
:10139000E4FF309839C2ACAF99C298EFB424097514
:1013A000A0007825E4F2C2047825E2FE04F2742F4E
:1013B0002EF8EFF27825E2C39446748094804003BF
:1013C0007446F2EFB42A02D204D2AC75A0FF309971
:0513D00004C299C206F1
:0513D500D0D0D0E03291
:0300430002166240
:10166200C0E0E59A30E00C539AFE859B80E59A54DF
:1016720004F5A0E59A30E105539AFDC206D0E032A6
:1016EE001216A012171ED2B420B3FB120DB1C2B443
:0216FE0080F476
:10004600020407E86480F8E933E83360110460F0DD
:10005600ED33EC337009E8FCE9FDEAFEEBFF220420
:1000660060DED3EB9FEA9EE99DE8C2E78CF0C2F71B
:1000760095F0400CE8CCF8E9CDF9EACEFAEBCFFBE7
:100086001203D285D0F05804700320D5B3E804706B
:10009600075002B2D502041192D5EC0460F7E4CC05
:1000A600C0E0C398F8603B94186008400DD0E0FBB0
:1000B6000203E9E4FBFAC9FC8028E830E406E4C957
:1000C600FBE4CAFCE830E305E4C9CACBFCE8540704
:1000D6006010F8C3E913F9EA13FAEB13FBEC13FC0F
:1000E600D8F130F52FC3E49CFCEF9BFFEE9AFEEDB2
:1000F60099FDD0E0FBEF4E4D4C701222DB0302045B
:100106000EEC2CFCEF33FFEE33FEED33FDED30E766
:10011600EB0203E9EF2BFFEE3AFEED39FDD0E0FBF3
:1001260050130BBB0003020411ED13FDEE13FEEF9B
:0801360013FFEC13FC0203E9C6
:10013E00EC4D6011E8497017ED33EC3304600DE4BB
:10014E00FCFFFEFD22E933E8330470F802040712C7
:10015E0003D258046009E4CC2481500628500902C9
:10016E00041128400302040EC0E0EB4A7044B9802B
:10017E0006D0E0FB0203FDEF4E701CBD8008EBFFC6
:10018E00EAFEE9FD80EBE98DF0A4FEE5F002022720
:10019E00E9CDF9EAFEEBFFEF89F0A4FCE5F0CE899C
:1001AE00F0A42EFFE435F0CD89F0A42DFEE435F059
:1001BE008067EF4E7005BD80D780C3EF8BF0A4AC87
:1001CE00F0EE8BF0A42CFCE435F0F8EF8AF0A42CC2
:1001DE00E5F038FCE433CB8DF0A42CFCE5F03BF8D5
:1001EE00EE8AF0A42CFCE5F038F8E433CF89F0A4C5
:1001FE002CFCE5F038CF3400CE89F0A42FFFE5F0CB
:10020E003EFEE433C98DF0A42EFEE5F039CD8AF022
:10021E00A42FFFE5F03EFEE43DFD33D0E0FB50079A
:10022E000BBB000F020411EC2CFCEF33FFEE33FE80
:06023E00ED33FD0203E9AF
:10024400020411EC5D046005E8590470030204071C
:100254001203D2580460F6EC4860F2EC7004FDFE20
:10026400FF22C860DB2481C85009C398600250068D
:1002740002040E9850CAF582E9294B4A7005AB82F4
:100284000203FD75F0007C1A7880C3EF9BEE9AEDB3
:1002940099400DC3EF9BFFEE9AFEED99FDE842F005
:1002A400DC23ACF0D0E0FFD0E0FED0E0FDAB822058
:1002B400E7101BEB60BAEC2CFCEF33FFEE33FEEDE2
:1002C40033FD0203E9E803F830E705C0F075F000F8
:1002D400EF2FFFEE33FEED33FD40B830E7C280AAC6
:1002E40074F8CC6480CCC86480C8F58204604FC3C1
:1002F400EB9FF5F0EA9E42F0E99D42F0E89C45F060
:10030400603C501DE5825FFFE582D313CB5BCBF4E9
:100314002B5582FB50280ABA002409B90020088012
:100324001DE5825BFBE582D313CF5FCFF4C3132FAC
:100334005582FF50090EBE00050DBD00010CC3EB34
:100344009FF5F0EA9E42F0E99D42F0E89C45F0609A
:0903540007CC4820E701B3EC22BC
:10035D0075F020800E75F010800575F0087D007E1B
:10036D00007F003392D530D5031205B9EC33401020
:10037D00EF33FFEE33FEED33FDEC33FCD5F0ED2224
:0E038D00E5F0247EA2D513CC92E7CDCEFF2260
:10039B00EDD2E7CD33EC3392D524814006E4FFFE5A
:1003AB00FDFC22FCE4CFCECDCC24E0501174FF80B9
:1003BB00EDC3CC13CCCD13CDCE13CECF13CF047056
:0703CB00F030D5DE0205B998
:1003D200E9D2E7C933E833F892D5EDD2E7CD33EC71
:0703E20033FC5002B2D522EA
:1003E900EC30E7100FBF000C0EBE00080DBD000475
:1003F9000BEB6014A2D5EB13FCED92E7FD2274FF21
:10040900FCFDFEFF22E480F8A2D574FF13FC7D8079
:03041900E480EF8D
:1010DD000216EEE493A3F8E493A34003F68001F225
:1010ED0008DFF48029E493A3F85407240CC8C33314
:1010FD00C4540F4420C8834004F456800146F6DFE3
:10110D00E4800B01020408102040809013DAE47E85
:10111D00019360BCA3FF543F30E509541FFEE493D7
:10112D00A360010ECF54C025E060A840B8E493A39E
:10113D00FAE493A3F8E493A3C8C582C8CAC583CAC9
:10114D00F0A3C8C582C8CAC583CADFE9DEE780BE81
:0114210000CA
:10041C00BB010689828A83E0225002E722BBFE02DE
:09042C00E32289828A83E4932211
:10043500EF8DF0A4A8F0CF8CF0A428CE8DF0A42EDB
:02044500FE2295
:10044700BC000BBE0029EF8DF084FFADF022E4CC99
:10045700F875F008EF2FFFEE33FEEC33FCEE9DEC62
:10046700984005FCEE9DFE0FD5F0E9E4CEFD22EDA8
:10047700F8F5F0EE8420D21CFEADF075F008EF2FF2
:10048700FFED33FD4007985006D5F0F222C398FDE3
:050497000FD5F0EA2280
:10049C00E88FF0A4CC8BF0A42CFCE98EF0A42CFCFF
:1004AC008AF0EDA42CFCEA8EF0A4CDA8F08BF0A47D
:1004BC002DCC3825F0FDE98FF0A42CCD35F0FCEBDC
:1004CC008EF0A4FEA9F0EB8FF0A4CFC5F02ECD39A1
:0F04DC00FEE43CFCEAA42DCE35F0FDE43CFC220E
:1004EB0075F008758200EF2FFFEE33FECD33CDCCC8
:1004FB0033CCC58233C5829BED9AEC99E58298404B
:10050B000CF582EE9BFEED9AFDEC99FC0FD5F0D627
:10051B00E4CEFBE4CDFAE4CCF9A88222B800C1B951
:10052B000059BA002DEC8BF084CFCECDFCE5F0CB8F
:10053B00F97818EF2FFFEE33FEED33FDEC33FCEBC8
:10054B0033FB10D703994004EB99FB0FD8E5E4F983
:10055B00FA227818EF2FFFEE33FEED33FDEC33FC70
:10056B00C933C910D7059BE99A4007EC9BFCE99A64
:10057B00F90FD8E0E4C9FAE4CCFB2275F010EF2FA9
:10058B00FFEE33FEED33FDCC33CCC833C810D707A9
:10059B009BEC9AE899400AED9BFDEC9AFCE899F8E4
:0E05AB000FD5F0DAE4CDFBE4CCFAE4C8F92277
:0E05B900C3E49FFFE49EFEE49DFDE49CFC2253
:0C05C700ECF208EDF208EEF208EFF22270
:00000001FF
