:0F1349007D9B7C03ED1D70011C144C70F7DFF1D0
:011358002272
:060944008B168A178918CA
:10094A00EF64016003020B07756001F561F562F55A
:10095A0063F564F565F566FFEFC3942874809480A7
:10096A005009748F2FF8E4F60F80EDE4FFEFC3947B
:10097A002874809480500974672FF8E4F60F80ED8C
:10098A00AB16AA17A9181202E7FD7C00D394C0740B
:10099A0080948040037F012290000A1203006401C0
:1009AA007004D2BC8002C2BC1202E7FFE598543F31
:1009BA004FF598ED64C04C6008EF64406003020A8A
:1009CA00829000021204DB7FC07EC67D2D7C00125D
:1009DA0003D58F1C8E1B8D1A8C19E4FFFE7D01FC3A
:1009EA00AB1CAA1BA91AA819C312047D40037F02D3
:1009FA0022C3E4951CF51CE4951BF51B7401951A9A
:100A0A00F51AE49519F519AB16AA17A91890000159
:100A1A00120300FB7A006401702CC28E538EFE53BF
:100A2A0089BF5389CF438E40AF1CAE1BAD1AAC1998
:100A3A00780812048E8F8D851C8BC2AB5389BF53E5
:100A4A008FFDD28E806CEB64024A7029538EEF437D
:100A5A008E01538EF7438E04AF1CAE1BAD1AAC1930
:100A6A00780812048E8FD6851CD753AFFB538EF7A6
:100A7A00438E10803D7F0222AB16AA17A9181202D4
:100A8A00E7FF7E00701490000812030064017005ED
:100A9A00438E20801D538EDF8018EF64804E7012C3
:100AAA009000081203006401700543878080035395
:100ABA00877FAB16AA17A9189000091203006401D0
:100ACA007004D2AC8002C2AC900007120300640129
:100ADA007004D29C8002C29C90000B12030054C086
:100AEA00FFE5A2543F4FF5A290000C1203006401E7
:0F0AFA00700543971080035397EF7F00227F030F
:010B090022C9
:10120A00748F2562F8A6070562C3E5629428748084
:10121A0094804003E4F562E5637005756301D29931
:01122A0022A1
:101336001202E7FF600C12120A740129F9E43AFA64
:0313460080EE2214
:03002300020FD9F0
:100FD900C0E0C0D075D000C000C007309821C298C9
:100FE900E566701BC3E5649428748094804003759A
:100FF9006400AF64056474672FF8A69975650530B8
:101009009925C299E5616562601A748F2561F8E6D0
:10101900F5990561C3E56194287480948040087549
:1010290061008003756300D007D000D0D0D0E032D2
:100F5D0020526573706F6E6465722047616D650018
:100F6D00412D3E00422D3E00D3CECFB7BFAACABC05
:100F7D0021BFAACABCC7C0B4F00D0A0041D7E9C74A
:100F8D00C0B4F0B3C9B9A62E2E2E0D0A0042D7E972
:100F9D00C7C0B4F0B3C9B9A62E2E2E0D0A005354F6
:100FAD0043313546324B3630533220554152543150
:100FBD0020546573742050726772616D6D65210DDB
:0C0FCD000A009080F8829299B0A4F9C04C
:1012EB00015D00015E00015F00015800015C00011F
:0812FB005900015A00015B00DB
:100D8D0012116312122BD2AF1211BD1212B77F01C5
:100D9D001211958F5D7F031211958F5E7F051211D4
:100DAD00958F5F7BFF7A0F795D7D01E4FF1210BF98
:100DBD007BFF7A0F796D7D02E4FF1210BF7BFF7A06
:100DCD000F79717D027F051210BFE55D2430FB7D2B
:100DDD00027F0312124BE55E2430FB7D027F081269
:100DED00124BC2FF120CA7C3E55D94097480948069
:100DFD004003E4F55DC3E55E94097480948040037F
:100E0D00E4F55ED3E56594007480948040D6156555
:100E1D00E56570D0D3E5649400748094804018E447
:100E2D00F508E508C39564500E74672508F8E6FFCC
:0C0E3D0012120A050880EBE4F56480A89E
:100CA70020C01A7F6412134920C012D2F8D2F9D299
:100CB700FA7559017BFF7A0F797512133620C241F5
:100CC700E5596401703B7F0A12134920C233C2F809
:100CD700C2F9C2FA755B02755A01055DAD5D7F0108
:100CE7001212D1E55D2430FB7D027F0312124B7B8C
:100CF700FF7A0F7989121336D2FF7FF4121349C294
:100D0700FF20C541E5596401703B7F0A1213492052
:100D1700C533D2F8C2F9C2FA755A01055E755B038D
:100D2700AD5E7F031212D1E55E2430FB7D027F08A2
:100D370012124B7BFF7A0F799A121336D2FF7FF488
:100D4700121349C2FF20C73D7F0A12134920C73536
:100D5700E4F55EF55DAD5D7F011212D17F6412137C
:100D670049AD5E7F031212D17F64121349E55D24FA
:100D770030FB7D027F0312124BE55E2430FB7D02C0
:060D87007F0812124B224E
:10116300750940750A02E4750E80750D25F50CF5B9
:101173000B751001F511751201F513F514F515FB37
:101183007A0079097F011209447BFF7A0F79AB0258
:02119300133611
:10122B00E4F509F50A750B01F50C750D01750EB199
:10123B00750FE0751001FB7A0079097F0102077ABF
:03001B0002103997
:10103900C0E0C083C082C0D0E5596401702F055853
:10104900D3E5589432748094804022755800055C29
:10105900E55C900FCF93F5E8E55C64096006E55A15
:1010690064017009755900755C00755A00D0D0D0BB
:0610790082D083D0E032BA
:1011BD001212687F381212831212687F0C1212837A
:1011CD001212687F061212831212687F01121283A7
:0711DD007F647E0002126C2A
:101283008F0D121268C290C291D292850D801212F4
:0A12930068C2927F0A7E0002126C0E
:10129D008F0D121268D290C291D292850D801212CA
:0A12AD0068C2927F0A7E0002126CF4
:02124B008B090D
:10124D00ED64017007EF2480F50A8005EF24C0F5E9
:0B125D000AAF0A121283AF0902129DB3
:0610BF008B098A0A890B6F
:1010C500ED64017007EF2480F50C8005EF24C0F571
:1010D5000CAF0C121283AB09AA0AA90B1202E7FF87
:1010E500601012129D7401250BF50BE4350AF50A03
:0210F50080E495
:0110F70022D6
:041268007F0A7E007B
:10126C00D3EF9400EE9400400D000000000000EF5E
:06127C001F70ED1E80EA68
:011282002249
:10130400D2A7C2A600D2A600C2A700C2A6000000AF
:09131400D2A600D2A700C2A62255
:1012B700D2A7C2A6E4FFEFC39409748094805007B5
:0A12C700D2A6C2A60F80EF021304A6
:1010F800E4FE7D80EDD39400748094804017ED5F0A
:101108006004D2A78002C2A7D2A6000000C2A6ED42
:10111800C313FD80DFD2A7D2A6A2A7E43300000044
:05112800C2A6D2A7FFE2
:01112D00229F
:10107F00E4FED2A77D80EDD394007480948040135A
:10108F00D2A630A703ED4206000000C2A6EDC3139F
:10109F00FD80E3EF64017004C2A78002D2A70000B5
:0F10AF0000D2A6000000C2A6000000D2A7AF0624
:0110BE00220F
:060ED5008B4F8A50895189
:100EDB00E4F556F557121304E55514600704701822
:100EEB007F0380027F051210F8EF3395E0FEEF25AC
:100EFB0057F557EE3556F556900000AF82AE83E4AA
:100F0B00FCFD7BFF7AFFF9F8D3120467400630A78C
:100F1B0003A380E730A7080557E557700205567FF6
:100F2B000112107FAB4FAA50A951EF12032D7F0175
:100F3B0012107FAB4FAA50A951900001EF12033F43
:100F4B00E4FF12107FAB52AA53A954EF12032DAF3B
:010F5B00573E
:010F5C002272
:060B0A008B218A228923E1
:100B1000E4F52AF5297528807527C0752E54752DA2
:100B2000E3752C25752B3D7532A27531E775303B89
:100B3000752FB675360A7535D775342375333C7500
:100B40003AAC7539C57538A77537381204A18F3E90
:100B50008E3D8D3C8C3BAB24AA25A9261204A18F87
:100B6000428E418D408C3F7F0A7ED77D237C3CABFB
:100B700042AA41A940A83F12011EE4FBFA7920785D
:100B8000C212002D8F4E8E4D8D4C8C4BAF3EAE3D24
:100B9000AD3CAC3BAB32AA31A930A82F12011EAB41
:100BA0003EAA3DA93CA83B12011EC004C005C006D8
:100BB000C007AF3EAE3DAD3CAC3BAB2EAA2DA92C41
:100BC000A82B12011ED003D002D001D00012002D9C
:100BD000AB2AAA29A928A82712002D8F468E458D59
:100BE000448C43AF3EAE3DAD3CAC3BAB3AAA39A9D9
:100BF00038A83712011EAB36AA35A934A833120023
:100C00002DC004C005C006C007E4FFFE7DC87CC13E
:100C1000AB4EAA4DA94CA84B12002DD003D002D048
:100C200001D00012011EAB46AA45A944A8431200F8
:100C30002DE4FBFA794078C012002D8F4A8E498D41
:100C4000488C47E4FFFE7DC87C42AB4AAA49A948CC
:100C5000A847120224600D400BE4F54AF549754897
:100C6000C87547427FCD7ECC7DCC7C3DAB4AAA493E
:100C7000A948A847120224500C754ACD7549CC7575
:100C800048CC75473DAF4EAE4DAD4CAC4BAB24AAF6
:100C900025A9261204C1AF4AAE49AD48AC47AB21E5
:070CA000AA22A9230204C1EE
:04136800D2A07F058B
:08136C0000AE071FEE70F9222C
:0F135900D2A1121368C2A17F0512136CC2A02289
:0C137400C2A1121368D2A17F0502136C05
:10000300C2A0A20092A17F0512136C121368C2A0B2
:07001300D2A17F0502136C6E
:08131D001213597FA012112EDA
:10132500121368A2A19200C2A07F0512136CA2003D
:011335002295
:02112E00AD070B
:10113000E4FCECC39408748094805024C2A07F0522
:1011400012136CED30E704D2A18002C2A17F051218
:10115000136CD2A0ED25E0FD7F0512136C0C80D23C
:02116000C2A02B
:01116200226A
:1011E400E4FCECC39408748094805017121368EDE7
:1011F40025E0FD30A103430501C2A07F0512136C55
:051204000C80DFAF05C6
:0112090022C2
:1012D100AB05AA0712131DAF0212112E121325AF6F
:0A12E1000312112E121325021374DC
:02119500AB07A6
:1011970012131DAF0312112E1213251213597FA11B
:1011A70012112E1213251211E4AD07C2001200030B
:0511B700121374AF05E6
:0111BC002210
:10077A00AD07EDD394027480948040037F0122ED8B
:10078A006003020820C28C90000212030064017008
:10079A0004D2A98002C2A990000112030064017068
:1007AA0004D2B98002C2B91202E7FED3940374805C
:1007BA00948040037F0222E58954FC4EF58990001B
:1007CA0003120300FF7E0064017003538E7FEF4E15
:1007DA007003438E80EF64024E70054389048003E0
:1007EA005389FB90000412030064017005438F01D2
:1007FA008003538FFE900005120361E5F0F58C909B
:10080A000005120361F58A90000712030064017063
:10081A0002D28C7F0022ED640160030208B9C28E05
:10082A0090000212030064017004D2AB8002C2ABD2
:10083A0090000112030064017004D2BB8002C2BBA3
:10084A001202E7FEC394037480948040037F02225D
:10085A00E58954CF4EF589900003120300FF7E000C
:10086A0064017003538EBFEF4E7003438E40EF64F2
:10087A00024E700543894080035389BF90000412D9
:10088A00030064017005438F028003538FFD9000BB
:10089A0005120361E5F0F58D900005120361F58BF1
:1008AA0090000712030064017002D28E7F0022EDCD
:1008BA0064026003020941538EEF900002120300A2
:1008CA006401700543AF04800353AFFB9000031229
:1008DA000300FD7C00D394027480948040037F025D
:1008EA0022ED64014C7003538EFB90000312030047
:1008FA007003438E049000031203006402700543E0
:10090A008E088003538EF79000041203006401706E
:10091A0005438F048003538FFB900005120361FD8A
:10092A00ACF0ECF5D68DD790000712030064017085
:0A093A0003438E107F00227F02228B
:10059900EFD394057480948040037F01221202E70F
:1005A900FED394037480948040037F0222EF704449
:1005B900EE700B900001120300F452935294120250
:1005C900E76401700B9000011203004293F4529406
:1005D9001202E7FE6402700A9000011203004293BE
:1005E9004294EE6403700D900001120300FEF45270
:1005F90093EE4294EF640170461202E7FE700B908D
:100609000001120300F452915292EE6401700B90B2
:1006190000011203004291F452921202E76402703F
:100629000A900001120300429142921202E7640308
:10063900700D900001120300FEF45291EE4292EF08
:10064900640270461202E7FE700B9000011203006B
:10065900F452955296EE6401700B9000011203005A
:100669004295F452961202E76402700A9000011250
:100679000300429542961202E76403700D9000014F
:10068900120300FEF45295EE4296EF64037046128F
:1006990002E7FE700B900001120300F452B152B24E
:1006A900EE6401700B90000112030042B1F452B2E2
:1006B9001202E76402700A90000112030042B1427B
:1006C900B21202E76403700D900001120300FEF4F8
:1006D90052B1EE42B2EF640470461202E7FE700BAB
:1006E900900001120300F452B352B4EE6401700B8E
:1006F90090000112030042B3F452B41202E76402FB
:10070900700A90000112030042B342B41202E76476
:1007190003700D900001120300FEF452B3EE42B4CF
:10072900EF640570491202E7FF7E00700B9000012B
:10073900120300F452C952CAEF64014E700B9000C3
:100749000112030042C9F452CA1202E76402700A94
:1007590090000112030042C942CA1202E764037001
:100769000D900001120300FFF452C9EF42CA7F0045
:01077900225D
:100026000202D2E86480F8E933E83360110460F034
:10003600ED33EC337009E8FCE9FDEAFEEBFF220440
:1000460060DED3EB9FEA9EE99DE8C2E78CF0C2F73B
:1000560095F0400CE8CCF8E9CDF9EACEFAEBCFFB07
:1000660012029D85D0F05804700320D5B3E80470C1
:10007600075002B2D50202DC92D5EC0460F7E4CC5C
:10008600C0E0C398F8603B94186008400DD0E0FBD0
:100096000202B4E4FBFAC9FC8028E830E406E4C9AD
:1000A600FBE4CAFCE830E305E4C9CACBFCE8540724
:1000B6006010F8C3E913F9EA13FAEB13FBEC13FC2F
:1000C600D8F130F52FC3E49CFCEF9BFFEE9AFEEDD2
:1000D60099FDD0E0FBEF4E4D4C701222DB0302027D
:1000E600D9EC2CFCEF33FFEE33FEED33FDED30E7BC
:1000F600EB0202B4EF2BFFEE3AFEED39FDD0E0FB4A
:1001060050130BBB00030202DCED13FDEE13FEEFF2
:0801160013FFEC13FC0202B41C
:10011E00EC4D6011E8497017ED33EC3304600DE4DB
:10012E00FCFFFEFD22E933E8330470F80202D2121E
:10013E00029D58046009E4CC24815006285009021F
:10014E0002DC2840030202D9C0E0EB4A7044B980B9
:10015E0006D0E0FB0202C8EF4E701CBD8008EBFF1C
:10016E00EAFEE9FD80EBE98DF0A4FEE5F002020760
:10017E00E9CDF9EAFEEBFFEF89F0A4FCE5F0CE89BC
:10018E00F0A42EFFE435F0CD89F0A42DFEE435F079
:10019E008067EF4E7005BD80D780C3EF8BF0A4ACA7
:1001AE00F0EE8BF0A42CFCE435F0F8EF8AF0A42CE2
:1001BE00E5F038FCE433CB8DF0A42CFCE5F03BF8F5
:1001CE00EE8AF0A42CFCE5F038F8E433CF89F0A4E5
:1001DE002CFCE5F038CF3400CE89F0A42FFFE5F0EB
:1001EE003EFEE433C98DF0A42EFEE5F039CD8AF043
:1001FE00A42FFFE5F03EFEE43DFD33D0E0FB5007BB
:10020E000BBB000F0202DCEC2CFCEF33FFEE33FED7
:06021E00ED33FD0202B405
:1002240074F8CC6480CCC86480C8F58204604FC381
:10023400EB9FF5F0EA9E42F0E99D42F0E89C45F020
:10024400603C501DE5825FFFE582D313CB5BCBF4AA
:100254002B5582FB50280ABA002409B900200880D3
:100264001DE5825BFBE582D313CF5FCFF4C3132F6D
:100274005582FF50090EBE00050DBD00010CC3EBF5
:100284009FF5F0EA9E42F0E99D42F0E89C45F0605B
:0902940007CC4820E701B3EC227D
:10029D00E9D2E7C933E833F892D5EDD2E7CD33ECA7
:0702AD0033FC5002B2D52220
:1002B400EC30E7100FBF000C0EBE00080DBD0004AB
:1002C4000BEB6014A2D5EB13FCED92E7FD2274FF57
:1002D400FCFDFEFF22E480F8A2D574FF13FC7D80B0
:0302E400E480EFC4
:03000000020E49A4
:0C0E4900787FE4F6D8FD7581B6020E90AB
:1002E700BB010689828A83E0225002E722BBFE0215
:0902F700E32289828A83E4932248
:10030000BB010CE58229F582E5833AF583E02250B2
:1003100006E92582F8E622BBFE06E92582F8E222FC
:0D032000E58229F582E5833AF583E4932216
:10032D00BB010689828A83F0225002F722BBFE01AF
:02033D00F322A9
:10033F00F8BB010DE58229F582E5833AF583E8F0F4
:10034F00225006E92582C8F622BBFE05E92582C8A0
:02035F00F22288
:10036100BB0110E58229F582E5833AF583E0F5F0DA
:10037100A3E0225009E92582F886F008E622BBFEB7
:100381000AE92582F8E2F5F008E222E5832AF583FD
:08039100E993F5F0A3E99322C2
:1003990075F008758200EF2FFFEE33FECD33CDCC1B
:1003A90033CCC58233C5829BED9AEC99E58298409E
:1003B9000CF582EE9BFEED9AFDEC99FC0FD5F0D67B
:1003C900E4CEFBE4CDFAE4CCF9A88222B800C1B9A5
:1003D9000059BA002DEC8BF084CFCECDFCE5F0CBE3
:1003E900F97818EF2FFFEE33FEED33FDEC33FCEB1C
:1003F90033FB10D703994004EB99FB0FD8E5E4F9D7
:10040900FA227818EF2FFFEE33FEED33FDEC33FCC3
:10041900C933C910D7059BE99A4007EC9BFCE99AB7
:10042900F90FD8E0E4C9FAE4CCFB2275F010EF2FFC
:10043900FFEE33FEED33FDCC33CCC833C810D707FC
:100449009BEC9AE899400AED9BFDEC9AFCE899F837
:0E0459000FD5F0DAE4CDFBE4CCFAE4C8F922CA
:10046700EB9FF5F0EA9E42F0E99D42F0EC6480C80C
:0604770064809845F022AC
:10047D00EB9FF5F0EA9E42F0E99D42F0E89C45F0D5
:01048D00224C
:10048E00E8600FECC313FCED13FDEE13FEEF13FF4C
:03049E00D8F12270
:1004A100BB010789828A830205175005E9F8020515
:1004B1000BBBFE05E9F802052389828A8302052F19
:1004C100BB010789828A830205815005E9F802058B
:0A04D10075BBFE05E9F802058D2257
:1004DB00BB010DE58229F582E5833AF58302054CD4
:1004EB005007E92582F802053FBBFE07E92582F894
:1004FB00020558E58229F582E5833AF58302056505
:100E5500020D8DE493A3F8E493A34003F68001F219
:100E650008DFF48029E493A3F85407240CC8C3339E
:100E7500C4540F4420C8834004F456800146F6DF6D
:100E8500E4800B01020408102040809012EBE47E00
:100E9500019360BCA3FF543F30E509541FFEE49362
:100EA500A360010ECF54C025E060A840B8E493A329
:100EB500FAE493A3F8E493A3C8C582C8CAC583CA54
:100EC500F0A3C8C582C8CAC583CADFE9DEE780BE0C
:0113030000E9
:0C050B00E6FC08E6FD08E6FE08E6FF221C
:0C051700E0FCA3E0FDA3E0FEA3E0FF2257
:0C052300E2FC08E2FD08E2FE08E2FF2214
:10052F00E493FC740193FD740293FE740393FF2212
:0D053F00E6FB08E6F908E6FA08E6CBF8222C
:0C054C00E0F8A3E0F9A3E0FAA3E0FB2232
:0D055800E2FB08E2F908E2FA08E2CBF82223
:10056500E493F8740193F9740293FA740393FB22EC
:0C057500ECF608EDF608EEF608EFF622B2
:0C058100ECF0A3EDF0A3EEF0A3EFF022ED
:0C058D00ECF208EDF208EEF208EFF222AA
:00000001FF
