:0300000002040BEC
:0C040B00787FE4F6D8FD758151020452A0
:0E0B290081838587898B8D80828486888A8C63
:1006D100103EC0F9A4B0999282F880908883C6A197
:1006E100868E0A23407924304D1202780010052DA0
:1006F1008EC8C1BFF9073300252309040622013D35
:1007010000012100013C00024F0017023A000001E4
:0B0711002200015100013200014E00E7
:10086300E534C4540F243EF8E6FD1209027F0A7EE4
:010873000084
:10087400EF1FAA0670011E4A60147C007D78D3ED38
:0E0884009400EC940040E9ED1D70F31C80F030
:010892002243
:100AFB00758901758C3C758AB0D2A9D2AFD28C2284
:03000B0002049755
:10049700C0E0C0F0C083C082C0D075D000C000C02B
:1004A70001C002C003C004C005C006C007758C3C6C
:1004B700758AB0054E7F041207FE7580FFE521702F
:1004C70004C2818002D281E551B4010CE54EB40229
:1004D70009B282754E008002D282E522B4010B0573
:1004E70032C2807F01120AC68002D280E532B4642C
:1004F7000DD280E4FF120AC6753200752200D007BC
:10050700D006D005D004D003D002D001D000D0D07F
:09051700D082D083D0F0D0E03294
:10052000120B4F120AFB7F041207FE7580FF12099F
:100530004C120A541206177F647E001208741205CA
:100540009C120617E50E24F4604614603724FD6003
:10055000291470EAE521B40117C2B2D2B3D2B0D2E5
:10056000B1D2B4D2B520B4D620B4D312076A80F881
:10057000E550155070C8154F80C40550E55070BE49
:10058000054F80BA0521E521B402B3E4F52180AE20
:0C059000053DE53DB403A7E4F53D80A265
:1007FE00EF24FB601314601914601F24037023E5AB
:10080E00A0541F4480F5A022E5A0541F44A0F5A0DB
:10081E0022E5A0541F44C0F5A022E5A0541F44E0D9
:03082E00F5A02210
:0F08F3007C007D0A12030E743E2DF8E6FD7F0790
:10090200AE077F061207FEAF067401A80708800231
:0E091200C333D8FCF5807F071207FE8D8022CC
:10067B00AD2FE4FF12086DAD3F7F0112086DAE3A4E
:10068B00AF3B7C007D6412030E7C007D0A12030ECF
:10069B00743E2DF8E6FD7F0512086DAE3AAF3B7C3C
:1006AB00007D0A12030E7C007D0A12030E74232DAB
:1006BB00F8E6FD7F0612086DAE3AAF3B1208F37FEA
:0606CB000A7E0002087423
:100720001207B4AD2FE4FF12086DAD407F0112082F
:100730006DE535C4540F243EF8E6FD7F0312086DC5
:10074000E535540F243EF8E6FD7F0412086DAD3008
:100750007F0512086D7F06120863E534540F243EAE
:0A0760001208FD7F0A7E00020874F3
:10076A001207B4AD2FE4FF12086DAD407F011208E5
:10077A006D7F03120863E534540F243EF8E6FD7FCB
:10078A000412086DAD307F0512086DE533C4540FAD
:10079A00243EF8E6FD7F0612086DE533540F243E29
:0A07AA001208FD7F0A7E00020874A9
:10083100AD2FE4FF12086DAD417F0112086DAE4F7F
:10084100AF507C007D0A12030E743E2FF8E6FD7F47
:100851000612086DAE4FAF501208F37F0A7E0002F8
:02086100087419
:10059C001203711207B4E5217051AE3AAF3BFC7DEA
:1005AC006412030E7C007D0A12030E7E007F0A1279
:1005BC0002FCAA06AB07AE3AAF3B7C007D0A1203E5
:1005CC000E7C007D0A12030EEB2DFFEA3CFED3EFEE
:1005DC009550EE954F400A7F01120AC67551018065
:1005EC0012E4FF120AC6E4F5518008E4FF120AC6B1
:1005FC00120B58E53D700302067BE53DB401030286
:0B060C000720E53DB402031208312274
:100AC600AE077F051207FEBE010475801022E4F50D
:020AD60080227C
:100371001209777FCC1209E37F441209E31209774E
:100381007FCC1209E37FBE1209E3120A548F0C12CB
:100391000A548F0DE4F53AF53BF53A8F3BE53B7591
:1003A1003B00F53AE50C423BE53AC4F854F0C86825
:1003B100F53AE53BC4540F48F53BAE3AFF7C007D6E
:1003C1000A1202FC8E3A8F3BE50C540FFCE4120238
:1003D1002EE4FBFA7920783F12011EC004C005C04B
:1003E10006C007AC3AAD3BE4120229D003D002D0DB
:1003F10001D00012002D1202628E3A8F3BE50DC42E
:09040100540FFFBF0F03433A80C2
:01040A0022CF
:040B58001207B422AA
:090B4F0075A0A0E4F580F5A022D8
:10094C00E4FD7F8E120A6EE4F50CE50C900B3093EF
:10095C00FF7433250CF8E6FD120A6E050CE50CC38A
:0B096C00940740E67D807F8E020A6E3B
:1007B400E4F50CE50C900B2993FF120AD874332549
:1007C4000CF8A607050CE50CC3940740E6E534C411
:1007D400540FFFBF0F0D900B2AE493FF120AD88F1A
:1007E4003480EAE535C4540FFFBF0F0D900B2BE4A2
:0907F40093FF120AD88F3580EA48
:0107FD0022D9
:1008930020B00830B0FD7E007F072220B10830B1C0
:1008A300FD7E007F062220B20830B2FD7E007F0568
:1008B3002220B30830B3FD7E007F0422E4FEFF2232
:03071C00010E00CB
:04099E007F907E01C7
:1009A200EF1FAA0670011E4A60147C007D78D3ED09
:0E09B2009400EC940040E9ED1D70F31C80F001
:0109C0002214
:10061700750E14C2B2D2B3D2B0D2B1D2B4D2B5D25F
:10062700C2D2C420B50B12099E20B511750E0D80DC
:100637000C20B40912099E20B403750E11C2B3D25F
:10064700B0D2B2D2B1D2B4D2B5D2C2D2C420C40AC7
:1006570012099E30C4FD750E0D2220B50A12099E9F
:1006670020B510750E0C2220B40912099E20B40380
:04067700750E1022CA
:10000E00758920758DFD758BFD758850D28ED2AC9D
:03001E00D2AF223C
:100A9D001202E36010F5993099FDC299740129F99C
:060AAD00E43AFA80EB229E
:080003008F993099FDC299228A
:03002300020AB31B
:100AB300C0D075D000C007309804C298AF99D00752
:030AC300D0D0325E
:100A1E00C297E4FEEF30E004D2A38002C2A3D297C5
:0A0A2E00C297EFC313FF0EBE08EAE3
:010A3800229B
:100A3900E4FFFEEFC313FF30A30543078080035390
:0A0A4900077FD297C2970EBE08E99E
:010A53002280
:100A6E00AE07C293C297D2935306FEAF06120A1E6A
:080A7E00AF05120A1EC293220B
:100AD800C293C297D293430701120A1E120A39C25F
:010AE800937A
:010AE90022EA
:0208C3008F089C
:1008C500120B0B7F90120920120AEAAF08120920B9
:1008D500120AEA120B0B7F91120920120AEA120A78
:0D08E500018F09D200120A86120B43AF09E1
:0108F20022E3
:1009C1008F0A8D0B120B0B7F90120920120AEAAFCE
:1009D1000A120920120AEAAF0B120920120AEA02CE
:0209E1000B43C6
:040B3700D2A07F05C4
:080B3B0000AE071FEE70F92265
:0F0B0B00D2A1120B37C2A17F05120B3BC2A02251
:0C0B4300C2A1120B37D2A17F05020B3BB0
:100A8600C2A0A20092A17F05120B3B120B37C2A097
:070A9600D2A17F05020B3B1A
:100AEA00120B37A2A19201C2A07F05120B3BA201F1
:010AFA0022D9
:02092000AD0721
:10092200E4FCC2A07F05120B3BED30E704D2A180AC
:1009320002C2A17F05120B3BD2A0ED25E0FD7F058F
:09094200120B3B0CBC08DBC2A047
:01094B002289
:100A0100E4FC120B37ED25E0FD30A103430501C2E3
:0C0A1100A07F05120B3B0CBC08E8AF05F1
:010A1D0022B6
:040B1A007F327E00A8
:0B0B1E00EF1FAC0670011E4C70F622A9
:0209E300AD075E
:1009E500E4FBC294ED139294120B1AD294EDC31347
:0C09F500FD0BBB08ED7F327E00020B1EE4
:100A5400E4FBC294EDC313FDD294309403430580A8
:090A6400120B1A0BBB08EBAF05E5
:010A6D002266
:10097700C202D2947F787E00120B1EC2947F207E23
:1009870003120B1ED2947F647E00120B1EA2949258
:0609970002120B1AA2027D
:01099D002237
:100026000202CEE86480F8E933E83360110460F038
:10003600ED33EC337009E8FCE9FDEAFEEBFF220440
:1000460060DED3EB9FEA9EE99DE8C2E78CF0C2F73B
:1000560095F0400CE8CCF8E9CDF9EACEFAEBCFFB07
:1000660012029985D0F05804700320D5B3E80470C5
:10007600075002B2D50202D892D5EC0460F7E4CC60
:10008600C0E0C398F8603B94186008400DD0E0FBD0
:100096000202B0E4FBFAC9FC8028E830E406E4C9B1
:1000A600FBE4CAFCE830E305E4C9CACBFCE8540724
:1000B6006010F8C3E913F9EA13FAEB13FBEC13FC2F
:1000C600D8F130F52FC3E49CFCEF9BFFEE9AFEEDD2
:1000D60099FDD0E0FBEF4E4D4C701222DB0302027D
:1000E600D5EC2CFCEF33FFEE33FEED33FDED30E7C0
:1000F600EB0202B0EF2BFFEE3AFEED39FDD0E0FB4E
:1001060050130BBB00030202D8ED13FDEE13FEEFF6
:0801160013FFEC13FC0202B020
:10011E00EC4D6011E8497017ED33EC3304600DE4DB
:10012E00FCFFFEFD22E933E8330470F80202CE1222
:10013E00029958046009E4CC248150062850090223
:10014E0002D82840030202D5C0E0EB4A7044B980C1
:10015E0006D0E0FB0202C4EF4E701CBD8008EBFF20
:10016E00EAFEE9FD80EBE98DF0A4FEE5F002020760
:10017E00E9CDF9EAFEEBFFEF89F0A4FCE5F0CE89BC
:10018E00F0A42EFFE435F0CD89F0A42DFEE435F079
:10019E008067EF4E7005BD80D780C3EF8BF0A4ACA7
:1001AE00F0EE8BF0A42CFCE435F0F8EF8AF0A42CE2
:1001BE00E5F038FCE433CB8DF0A42CFCE5F03BF8F5
:1001CE00EE8AF0A42CFCE5F038F8E433CF89F0A4E5
:1001DE002CFCE5F038CF3400CE89F0A42FFFE5F0EB
:1001EE003EFEE433C98DF0A42EFEE5F039CD8AF043
:1001FE00A42FFFE5F03EFEE43DFD33D0E0FB5007BB
:10020E000BBB000F0202D8EC2CFCEF33FFEE33FEDB
:06021E00ED33FD0202B009
:1002240075F020800E75F010800575F0087D007E55
:10023400007F003392D530D503120363EC334010B2
:10024400EF33FFEE33FEED33FDEC33FCD5F0ED225E
:0E025400E5F0247EA2D513CC92E7CDCEFF229A
:10026200EDD2E7CD33EC3392D524814006E4FFFE94
:10027200FDFC22FCE4CFCECDCC24E0501174FF80F3
:10028200EDC3CC13CCCD13CDCE13CECF13CF047090
:07029200F030D5DE0203632A
:10029900E9D2E7C933E833F892D5EDD2E7CD33ECAB
:0702A90033FC5002B2D52224
:1002B000EC30E7100FBF000C0EBE00080DBD0004AF
:1002C0000BEB6014A2D5EB13FCED92E7FD2274FF5B
:1002D000FCFDFEFF22E480F8A2D574FF13FC7D80B4
:0302E000E480EFC8
:10041700020520E493A3F8E493A34003F68001F2D6
:1004270008DFF48029E493A3F85407240CC8C333E6
:10043700C4540F4420C8834004F456800146F6DFB5
:10044700E4800B01020408102040809006D1E47E6E
:10045700019360BCA3FF543F30E509541FFEE493AA
:10046700A360010ECF54C025E060A840B8E493A371
:10047700FAE493A3F8E493A3C8C582C8CAC583CA9C
:10048700F0A3C8C582C8CAC583CADFE9DEE780BE54
:01071F0000D9
:1002E300BB010689828A83E0225002E722BBFE0219
:0902F300E32289828A83E493224C
:1002FC00EF8DF0A4A8F0CF8CF0A428CE8DF0A42E16
:02030C00FE22CF
:10030E00BC000BBE0029EF8DF084FFADF022E4CCD3
:10031E00F875F008EF2FFFEE33FEEC33FCEE9DEC9C
:10032E00984005FCEE9DFE0FD5F0E9E4CEFD22EDE2
:10033E00F8F5F0EE8420D21CFEADF075F008EF2F2C
:10034E00FFED33FD4007985006D5F0F222C398FD1D
:05035E000FD5F0EA22BA
:0E036300C3E49FFFE49EFEE49DFDE49CFC22AB
:00000001FF
